{
  "address": "0x28d749F33B9C7A623788EC64C39015f74628Cd63",
  "abi": [
    {
      "inputs": [
        {
          "internalType": "contract IEntryPoint",
          "name": "_entryPoint",
          "type": "address"
        }
      ],
      "stateMutability": "nonpayable",
      "type": "constructor"
    },
    {
      "anonymous": false,
      "inputs": [
        {
          "indexed": true,
          "internalType": "contract BaseAccount",
          "name": "baseAccountImpl",
          "type": "address"
        }
      ],
      "name": "BaseAccountCreated",
      "type": "event"
    },
    {
      "inputs": [],
      "name": "baseAccountImpl",
      "outputs": [
        {
          "internalType": "contract BaseAccount",
          "name": "",
          "type": "address"
        }
      ],
      "stateMutability": "view",
      "type": "function"
    },
    {
      "inputs": [
        {
          "internalType": "address",
          "name": "owner",
          "type": "address"
        },
        {
          "internalType": "uint256",
          "name": "salt",
          "type": "uint256"
        }
      ],
      "name": "createAccount",
      "outputs": [
        {
          "internalType": "contract BaseAccount",
          "name": "ret",
          "type": "address"
        }
      ],
      "stateMutability": "nonpayable",
      "type": "function"
    },
    {
      "inputs": [
        {
          "internalType": "address",
          "name": "owner",
          "type": "address"
        },
        {
          "internalType": "uint256",
          "name": "salt",
          "type": "uint256"
        }
      ],
      "name": "getAddress",
      "outputs": [
        {
          "internalType": "address",
          "name": "",
          "type": "address"
        }
      ],
      "stateMutability": "view",
      "type": "function"
    }
  ],
  "transactionHash": "0xd072792b2ccda3901e7c00f2a5e0aa67a25a1851322b6543d6af2b984e0110bb",
  "args": [
    "0xEe5C82eDfB590526115B0B37fAcDC75844Bcf31F"
  ],
  "numDeployments": 2,
  "solcInputHash": "da4b592a54d497c976e9073aef2bc769",
  "bytecode": "0x60a060405234801561001057600080fd5b50604051612ec8380380612ec883398101604081905261002f91610088565b8060405161003c9061007b565b6001600160a01b039091168152602001604051809103906000f080158015610068573d6000803e3d6000fd5b506001600160a01b0316608052506100b8565b61219c80610d2c83390190565b60006020828403121561009a57600080fd5b81516001600160a01b03811681146100b157600080fd5b9392505050565b608051610c4c6100e060003960008181604b01528181610114015261025e0152610c4c6000f3fe608060405234801561001057600080fd5b50600436106100415760003560e01c8063407180df146100465780635fbfb9cf146100965780638cb84e18146100a9575b600080fd5b61006d7f000000000000000000000000000000000000000000000000000000000000000081565b60405173ffffffffffffffffffffffffffffffffffffffff909116815260200160405180910390f35b61006d6100a4366004610367565b6100bc565b61006d6100b7366004610367565b610212565b6000806100c98484610212565b905073ffffffffffffffffffffffffffffffffffffffff81163b80156100f15750905061020c565b60405173ffffffffffffffffffffffffffffffffffffffff8616602482015284907f00000000000000000000000000000000000000000000000000000000000000009060440160408051601f198184030181529181526020820180517bffffffffffffffffffffffffffffffffffffffffffffffffffffffff167fc4d66de800000000000000000000000000000000000000000000000000000000179052516101999061035a565b6101a49291906103dc565b8190604051809103906000f59050801580156101c4573d6000803e3d6000fd5b5060405190935073ffffffffffffffffffffffffffffffffffffffff8416907f09b2851a29143054055e7be16f5ebceec3d080845da179f2eac8521731494fbc90600090a250505b92915050565b60006103218260001b6040518060200161022b9061035a565b601f1982820381018352601f90910116604081905273ffffffffffffffffffffffffffffffffffffffff871660248201527f00000000000000000000000000000000000000000000000000000000000000009060440160408051601f19818403018152918152602080830180517bffffffffffffffffffffffffffffffffffffffffffffffffffffffff167fc4d66de80000000000000000000000000000000000000000000000000000000017905290516102e8939291016103dc565b60408051601f1981840301815290829052610306929160200161042c565b60405160208183030381529060405280519060200120610328565b9392505050565b60006103218383306000604051836040820152846020820152828152600b8101905060ff815360559020949350505050565b6107bb8061045c83390190565b6000806040838503121561037a57600080fd5b823573ffffffffffffffffffffffffffffffffffffffff8116811461039e57600080fd5b946020939093013593505050565b60005b838110156103c75781810151838201526020016103af565b838111156103d6576000848401525b50505050565b73ffffffffffffffffffffffffffffffffffffffff8316815260406020820152600082518060408401526104178160608501602087016103ac565b601f01601f1916919091016060019392505050565b6000835161043e8184602088016103ac565b8351908301906104528183602088016103ac565b0194935050505056fe60806040526040516107bb3803806107bb8339810160408190526100229161031e565b61002e82826000610035565b505061043b565b61003e8361006b565b60008251118061004b5750805b156100665761006483836100ab60201b6100291760201c565b505b505050565b610074816100d7565b6040516001600160a01b038216907fbc7cd75a20ee27fd9adebab32041f755214dbc6bffa90cc0225b39da2e5c2d3b90600090a250565b60606100d08383604051806060016040528060278152602001610794602791396101a9565b9392505050565b6100ea8161022260201b6100551760201c565b6101515760405162461bcd60e51b815260206004820152602d60248201527f455243313936373a206e657720696d706c656d656e746174696f6e206973206e60448201526c1bdd08184818dbdb9d1c9858dd609a1b60648201526084015b60405180910390fd5b806101887f360894a13ba1a3210667c828492db98dca3e2076cc3735a920a3ca505d382bbc60001b61023160201b6100711760201c565b80546001600160a01b0319166001600160a01b039290921691909117905550565b6060600080856001600160a01b0316856040516101c691906103ec565b600060405180830381855af49150503d8060008114610201576040519150601f19603f3d011682016040523d82523d6000602084013e610206565b606091505b50909250905061021886838387610234565b9695505050505050565b6001600160a01b03163b151590565b90565b606083156102a0578251610299576001600160a01b0385163b6102995760405162461bcd60e51b815260206004820152601d60248201527f416464726573733a2063616c6c20746f206e6f6e2d636f6e74726163740000006044820152606401610148565b50816102aa565b6102aa83836102b2565b949350505050565b8151156102c25781518083602001fd5b8060405162461bcd60e51b81526004016101489190610408565b634e487b7160e01b600052604160045260246000fd5b60005b8381101561030d5781810151838201526020016102f5565b838111156100645750506000910152565b6000806040838503121561033157600080fd5b82516001600160a01b038116811461034857600080fd5b60208401519092506001600160401b038082111561036557600080fd5b818501915085601f83011261037957600080fd5b81518181111561038b5761038b6102dc565b604051601f8201601f19908116603f011681019083821181831017156103b3576103b36102dc565b816040528281528860208487010111156103cc57600080fd5b6103dd8360208301602088016102f2565b80955050505050509250929050565b600082516103fe8184602087016102f2565b9190910192915050565b60208152600082518060208401526104278160408501602087016102f2565b601f01601f19169190910160400192915050565b61034a8061044a6000396000f3fe60806040523661001357610011610017565b005b6100115b610027610022610074565b6100b9565b565b606061004e83836040518060600160405280602781526020016102ee602791396100dd565b9392505050565b73ffffffffffffffffffffffffffffffffffffffff163b151590565b90565b60006100b47f360894a13ba1a3210667c828492db98dca3e2076cc3735a920a3ca505d382bbc5473ffffffffffffffffffffffffffffffffffffffff1690565b905090565b3660008037600080366000845af43d6000803e8080156100d8573d6000f35b3d6000fd5b60606000808573ffffffffffffffffffffffffffffffffffffffff16856040516101079190610280565b600060405180830381855af49150503d8060008114610142576040519150601f19603f3d011682016040523d82523d6000602084013e610147565b606091505b509150915061015886838387610162565b9695505050505050565b606083156101fa5782516101f35773ffffffffffffffffffffffffffffffffffffffff85163b6101f3576040517f08c379a000000000000000000000000000000000000000000000000000000000815260206004820152601d60248201527f416464726573733a2063616c6c20746f206e6f6e2d636f6e747261637400000060448201526064015b60405180910390fd5b5081610204565b610204838361020c565b949350505050565b81511561021c5781518083602001fd5b806040517f08c379a00000000000000000000000000000000000000000000000000000000081526004016101ea919061029c565b60005b8381101561026b578181015183820152602001610253565b8381111561027a576000848401525b50505050565b60008251610292818460208701610250565b9190910192915050565b60208152600082518060208401526102bb816040850160208701610250565b601f017fffffffffffffffffffffffffffffffffffffffffffffffffffffffffffffffe016919091016040019291505056fe416464726573733a206c6f772d6c6576656c2064656c65676174652063616c6c206661696c6564a2646970667358221220cfb3d36e9ec4ebf229c1befb34c248410530a03e5cec71652b10ffa2da9854e664736f6c634300080c0033416464726573733a206c6f772d6c6576656c2064656c65676174652063616c6c206661696c6564a264697066735822122077dd54d8530b74e25072b7e709f5d76779846b226ce8f6003b77a8268c61ac5264736f6c634300080c003360c0604052306080523480156200001557600080fd5b506040516200219c3803806200219c833981016040819052620000389162000118565b6001600160a01b03811660a0526200004f62000056565b506200014a565b600054610100900460ff1615620000c35760405162461bcd60e51b815260206004820152602760248201527f496e697469616c697a61626c653a20636f6e747261637420697320696e697469604482015266616c697a696e6760c81b606482015260840160405180910390fd5b60005460ff908116101562000116576000805460ff191660ff9081179091556040519081527f7f26b83ff96e1f2b6a682f133852f6798a09c465da95921460cefb38474024989060200160405180910390a15b565b6000602082840312156200012b57600080fd5b81516001600160a01b03811681146200014357600080fd5b9392505050565b60805160a051611fe6620001b6600039600081816102d8015281816106970152818161073e01528181610b3a01528181610d7a0152818161109e01526114180152600081816104970152818161052d015281816108030152818161089901526109c80152611fe66000f3fe6080604052600436106100f75760003560e01c806352d1902d1161008a578063b0d691fe11610059578063b0d691fe146102c9578063b61d27f6146102fc578063c399ec881461031c578063c4d66de81461033157600080fd5b806352d1902d146102195780635e0b7a151461022e5780638da5cb5b1461024e578063affed0e0146102a057600080fd5b80633a871cdd116100c65780633a871cdd146101be5780634a58db19146101de5780634d44560d146101e65780634f1ef2861461020657600080fd5b80631626ba7e1461010357806318dfb3c7146101595780633644e5151461017b5780633659cfe61461019e57600080fd5b366100fe57005b600080fd5b34801561010f57600080fd5b5061012361011e366004611b06565b610351565b6040517fffffffff0000000000000000000000000000000000000000000000000000000090911681526020015b60405180910390f35b34801561016557600080fd5b50610179610174366004611b92565b610366565b005b34801561018757600080fd5b50610190610470565b604051908152602001610150565b3480156101aa57600080fd5b506101796101b9366004611c20565b61047f565b3480156101ca57600080fd5b506101906101d9366004611c3d565b610651565b610179610695565b3480156101f257600080fd5b50610179610201366004611c91565b610734565b610179610214366004611cbd565b6107eb565b34801561022557600080fd5b506101906109ae565b34801561023a57600080fd5b50610123610249366004611b06565b610a80565b34801561025a57600080fd5b5060015461027b9073ffffffffffffffffffffffffffffffffffffffff1681565b60405173ffffffffffffffffffffffffffffffffffffffff9091168152602001610150565b3480156102ac57600080fd5b506000546201000090046bffffffffffffffffffffffff16610190565b3480156102d557600080fd5b507f000000000000000000000000000000000000000000000000000000000000000061027b565b34801561030857600080fd5b50610179610317366004611cf7565b610ae7565b34801561032857600080fd5b50610190610b36565b34801561033d57600080fd5b5061017961034c366004611c20565b610be9565b600061035d8383610a80565b90505b92915050565b61036e610d62565b8281146103c25760405162461bcd60e51b815260206004820152601360248201527f77726f6e67206172726179206c656e677468730000000000000000000000000060448201526064015b60405180910390fd5b60005b83811015610469576104578585838181106103e2576103e2611d80565b90506020020160208101906103f79190611c20565b600085858581811061040b5761040b611d80565b905060200281019061041d9190611daf565b8080601f016020809104026020016040519081016040528093929190818152602001838380828437600092019190915250610e0b92505050565b8061046181611e43565b9150506103c5565b5050505050565b600061047a610e88565b905090565b3073ffffffffffffffffffffffffffffffffffffffff7f000000000000000000000000000000000000000000000000000000000000000016141561052b5760405162461bcd60e51b815260206004820152602c60248201527f46756e6374696f6e206d7573742062652063616c6c6564207468726f7567682060448201527f64656c656761746563616c6c000000000000000000000000000000000000000060648201526084016103b9565b7f000000000000000000000000000000000000000000000000000000000000000073ffffffffffffffffffffffffffffffffffffffff166105a07f360894a13ba1a3210667c828492db98dca3e2076cc3735a920a3ca505d382bbc5473ffffffffffffffffffffffffffffffffffffffff1690565b73ffffffffffffffffffffffffffffffffffffffff16146106295760405162461bcd60e51b815260206004820152602c60248201527f46756e6374696f6e206d7573742062652063616c6c6564207468726f7567682060448201527f6163746976652070726f7879000000000000000000000000000000000000000060648201526084016103b9565b61063281610eae565b6040805160008082526020820190925261064e91839190610eb6565b50565b600061065b611086565b610665848461110b565b90506106746040850185611daf565b15159050610685576106858461119d565b61068e82611251565b9392505050565b7f00000000000000000000000000000000000000000000000000000000000000006040517fb760faf900000000000000000000000000000000000000000000000000000000815230600482015273ffffffffffffffffffffffffffffffffffffffff919091169063b760faf99034906024016000604051808303818588803b15801561072057600080fd5b505af1158015610469573d6000803e3d6000fd5b61073c6112bc565b7f00000000000000000000000000000000000000000000000000000000000000006040517f205c287800000000000000000000000000000000000000000000000000000000815273ffffffffffffffffffffffffffffffffffffffff848116600483015260248201849052919091169063205c287890604401600060405180830381600087803b1580156107cf57600080fd5b505af11580156107e3573d6000803e3d6000fd5b505050505050565b3073ffffffffffffffffffffffffffffffffffffffff7f00000000000000000000000000000000000000000000000000000000000000001614156108975760405162461bcd60e51b815260206004820152602c60248201527f46756e6374696f6e206d7573742062652063616c6c6564207468726f7567682060448201527f64656c656761746563616c6c000000000000000000000000000000000000000060648201526084016103b9565b7f000000000000000000000000000000000000000000000000000000000000000073ffffffffffffffffffffffffffffffffffffffff1661090c7f360894a13ba1a3210667c828492db98dca3e2076cc3735a920a3ca505d382bbc5473ffffffffffffffffffffffffffffffffffffffff1690565b73ffffffffffffffffffffffffffffffffffffffff16146109955760405162461bcd60e51b815260206004820152602c60248201527f46756e6374696f6e206d7573742062652063616c6c6564207468726f7567682060448201527f6163746976652070726f7879000000000000000000000000000000000000000060648201526084016103b9565b61099e82610eae565b6109aa82826001610eb6565b5050565b60003073ffffffffffffffffffffffffffffffffffffffff7f00000000000000000000000000000000000000000000000000000000000000001614610a5b5760405162461bcd60e51b815260206004820152603860248201527f555550535570677261646561626c653a206d757374206e6f742062652063616c60448201527f6c6564207468726f7567682064656c656761746563616c6c000000000000000060648201526084016103b9565b507f360894a13ba1a3210667c828492db98dca3e2076cc3735a920a3ca505d382bbc90565b6000610a9582610a8f8561132d565b90611381565b60015473ffffffffffffffffffffffffffffffffffffffff90811691161415610abf57600061035d565b507f1626ba7e0000000000000000000000000000000000000000000000000000000092915050565b610aef610d62565b610b30848484848080601f016020809104026020016040519081016040528093929190818152602001838380828437600092019190915250610e0b92505050565b50505050565b60007f00000000000000000000000000000000000000000000000000000000000000006040517f70a0823100000000000000000000000000000000000000000000000000000000815230600482015273ffffffffffffffffffffffffffffffffffffffff91909116906370a0823190602401602060405180830381865afa158015610bc5573d6000803e3d6000fd5b505050506040513d601f19601f8201168201806040525081019061047a9190611e7c565b600054610100900460ff1615808015610c095750600054600160ff909116105b80610c235750303b158015610c23575060005460ff166001145b610c955760405162461bcd60e51b815260206004820152602e60248201527f496e697469616c697a61626c653a20636f6e747261637420697320616c72656160448201527f647920696e697469616c697a656400000000000000000000000000000000000060648201526084016103b9565b600080547fffffffffffffffffffffffffffffffffffffffffffffffffffffffffffffff001660011790558015610cf357600080547fffffffffffffffffffffffffffffffffffffffffffffffffffffffffffff00ff166101001790555b610cfc826113a5565b80156109aa57600080547fffffffffffffffffffffffffffffffffffffffffffffffffffffffffffff00ff169055604051600181527f7f26b83ff96e1f2b6a682f133852f6798a09c465da95921460cefb38474024989060200160405180910390a15050565b3373ffffffffffffffffffffffffffffffffffffffff7f0000000000000000000000000000000000000000000000000000000000000000161480610dbd575060015473ffffffffffffffffffffffffffffffffffffffff1633145b610e095760405162461bcd60e51b815260206004820181905260248201527f6163636f756e743a206e6f74204f776e6572206f7220456e747279506f696e7460448201526064016103b9565b565b6000808473ffffffffffffffffffffffffffffffffffffffff168484604051610e349190611ec1565b60006040518083038185875af1925050503d8060008114610e71576040519150601f19603f3d011682016040523d82523d6000602084013e610e76565b606091505b50915091508161046957805160208201fd5b60035460009046908114610ea457610e9f81611463565b610ea8565b6002545b91505090565b61064e6112bc565b7f4910fdfa16fed3260ed0e7147f7cc6da11a60208b5b9406d12a635614ffd91435460ff1615610eee57610ee9836114cd565b505050565b8273ffffffffffffffffffffffffffffffffffffffff166352d1902d6040518163ffffffff1660e01b8152600401602060405180830381865afa925050508015610f73575060408051601f3d9081017fffffffffffffffffffffffffffffffffffffffffffffffffffffffffffffffe0168201909252610f7091810190611e7c565b60015b610fe55760405162461bcd60e51b815260206004820152602e60248201527f45524331393637557067726164653a206e657720696d706c656d656e7461746960448201527f6f6e206973206e6f74205555505300000000000000000000000000000000000060648201526084016103b9565b7f360894a13ba1a3210667c828492db98dca3e2076cc3735a920a3ca505d382bbc811461107a5760405162461bcd60e51b815260206004820152602960248201527f45524331393637557067726164653a20756e737570706f727465642070726f7860448201527f6961626c6555554944000000000000000000000000000000000000000000000060648201526084016103b9565b50610ee98383836115bd565b3373ffffffffffffffffffffffffffffffffffffffff7f00000000000000000000000000000000000000000000000000000000000000001614610e095760405162461bcd60e51b815260206004820152601c60248201527f6163636f756e743a206e6f742066726f6d20456e747279506f696e740000000060448201526064016103b9565b6000806111178361132d565b905061116761112a610140860186611daf565b8080601f01602080910402602001604051908101604052809392919081815260200183838082843760009201919091525085939250506113819050565b60015473ffffffffffffffffffffffffffffffffffffffff908116911614611193576001915050610360565b5060009392505050565b60008054602083013591620100009091046bffffffffffffffffffffffff169060026111c883611edd565b91906101000a8154816bffffffffffffffffffffffff02191690836bffffffffffffffffffffffff1602179055506bffffffffffffffffffffffff161461064e5760405162461bcd60e51b815260206004820152601660248201527f6163636f756e743a20696e76616c6964206e6f6e63650000000000000000000060448201526064016103b9565b801561064e5760405160009033907fffffffffffffffffffffffffffffffffffffffffffffffffffffffffffffffff90849084818181858888f193505050503d8060008114610469576040519150601f19603f3d011682016040523d82523d6000602084013e610469565b60015473ffffffffffffffffffffffffffffffffffffffff163314806112e157503330145b610e095760405162461bcd60e51b815260206004820152600a60248201527f6f6e6c79206f776e65720000000000000000000000000000000000000000000060448201526064016103b9565b6040517f19457468657265756d205369676e6564204d6573736167653a0a3332000000006020820152603c8101829052600090605c015b604051602081830303815290604052805190602001209050919050565b600080600061139085856115e2565b9150915061139d81611628565b509392505050565b600180547fffffffffffffffffffffffff00000000000000000000000000000000000000001673ffffffffffffffffffffffffffffffffffffffff83161790554660038190556113f481611463565b60025560015460405173ffffffffffffffffffffffffffffffffffffffff918216917f000000000000000000000000000000000000000000000000000000000000000016907f47e55c76e7a6f1fd8996a1da8008c1ea29699cca35e7bcd057f2dec313b6e5de90600090a35050565b604080517f22a1f56d1ac67e191d5f9ebee76ac2c509c58fe9a1bbf65f3cc0bb94d559ebb860208201527f8cad95687ba82c2ce50e74f7b754645e5117c3a5bec8151c0726d5857980a866918101919091526060810182905230608082015260009060a001611364565b73ffffffffffffffffffffffffffffffffffffffff81163b6115575760405162461bcd60e51b815260206004820152602d60248201527f455243313936373a206e657720696d706c656d656e746174696f6e206973206e60448201527f6f74206120636f6e74726163740000000000000000000000000000000000000060648201526084016103b9565b7f360894a13ba1a3210667c828492db98dca3e2076cc3735a920a3ca505d382bbc80547fffffffffffffffffffffffff00000000000000000000000000000000000000001673ffffffffffffffffffffffffffffffffffffffff92909216919091179055565b6115c683611791565b6000825111806115d35750805b15610ee957610b3083836117de565b6000808251604114156116195760208301516040840151606085015160001a61160d87828585611803565b94509450505050611621565b506000905060025b9250929050565b600081600481111561163c5761163c611f09565b14156116455750565b600181600481111561165957611659611f09565b14156116a75760405162461bcd60e51b815260206004820152601860248201527f45434453413a20696e76616c6964207369676e6174757265000000000000000060448201526064016103b9565b60028160048111156116bb576116bb611f09565b14156117095760405162461bcd60e51b815260206004820152601f60248201527f45434453413a20696e76616c6964207369676e6174757265206c656e6774680060448201526064016103b9565b600381600481111561171d5761171d611f09565b141561064e5760405162461bcd60e51b815260206004820152602260248201527f45434453413a20696e76616c6964207369676e6174757265202773272076616c60448201527f756500000000000000000000000000000000000000000000000000000000000060648201526084016103b9565b61179a816114cd565b60405173ffffffffffffffffffffffffffffffffffffffff8216907fbc7cd75a20ee27fd9adebab32041f755214dbc6bffa90cc0225b39da2e5c2d3b90600090a250565b606061035d8383604051806060016040528060278152602001611f8a602791396118f2565b6000807f7fffffffffffffffffffffffffffffff5d576e7357a4501ddfe92f46681b20a083111561183a57506000905060036118e9565b6040805160008082526020820180845289905260ff881692820192909252606081018690526080810185905260019060a0016020604051602081039080840390855afa15801561188e573d6000803e3d6000fd5b50506040517fffffffffffffffffffffffffffffffffffffffffffffffffffffffffffffffe0015191505073ffffffffffffffffffffffffffffffffffffffff81166118e2576000600192509250506118e9565b9150600090505b94509492505050565b60606000808573ffffffffffffffffffffffffffffffffffffffff168560405161191c9190611ec1565b600060405180830381855af49150503d8060008114611957576040519150601f19603f3d011682016040523d82523d6000602084013e61195c565b606091505b509150915061196d86838387611977565b9695505050505050565b606083156119f05782516119e95773ffffffffffffffffffffffffffffffffffffffff85163b6119e95760405162461bcd60e51b815260206004820152601d60248201527f416464726573733a2063616c6c20746f206e6f6e2d636f6e747261637400000060448201526064016103b9565b50816119fa565b6119fa8383611a02565b949350505050565b815115611a125781518083602001fd5b8060405162461bcd60e51b81526004016103b99190611f38565b7f4e487b7100000000000000000000000000000000000000000000000000000000600052604160045260246000fd5b600082601f830112611a6c57600080fd5b813567ffffffffffffffff80821115611a8757611a87611a2c565b604051601f83017fffffffffffffffffffffffffffffffffffffffffffffffffffffffffffffffe0908116603f01168101908282118183101715611acd57611acd611a2c565b81604052838152866020858801011115611ae657600080fd5b836020870160208301376000602085830101528094505050505092915050565b60008060408385031215611b1957600080fd5b82359150602083013567ffffffffffffffff811115611b3757600080fd5b611b4385828601611a5b565b9150509250929050565b60008083601f840112611b5f57600080fd5b50813567ffffffffffffffff811115611b7757600080fd5b6020830191508360208260051b850101111561162157600080fd5b60008060008060408587031215611ba857600080fd5b843567ffffffffffffffff80821115611bc057600080fd5b611bcc88838901611b4d565b90965094506020870135915080821115611be557600080fd5b50611bf287828801611b4d565b95989497509550505050565b73ffffffffffffffffffffffffffffffffffffffff8116811461064e57600080fd5b600060208284031215611c3257600080fd5b813561068e81611bfe565b600080600060608486031215611c5257600080fd5b833567ffffffffffffffff811115611c6957600080fd5b84016101608187031215611c7c57600080fd5b95602085013595506040909401359392505050565b60008060408385031215611ca457600080fd5b8235611caf81611bfe565b946020939093013593505050565b60008060408385031215611cd057600080fd5b8235611cdb81611bfe565b9150602083013567ffffffffffffffff811115611b3757600080fd5b60008060008060608587031215611d0d57600080fd5b8435611d1881611bfe565b935060208501359250604085013567ffffffffffffffff80821115611d3c57600080fd5b818701915087601f830112611d5057600080fd5b813581811115611d5f57600080fd5b886020828501011115611d7157600080fd5b95989497505060200194505050565b7f4e487b7100000000000000000000000000000000000000000000000000000000600052603260045260246000fd5b60008083357fffffffffffffffffffffffffffffffffffffffffffffffffffffffffffffffe1843603018112611de457600080fd5b83018035915067ffffffffffffffff821115611dff57600080fd5b60200191503681900382131561162157600080fd5b7f4e487b7100000000000000000000000000000000000000000000000000000000600052601160045260246000fd5b60007fffffffffffffffffffffffffffffffffffffffffffffffffffffffffffffffff821415611e7557611e75611e14565b5060010190565b600060208284031215611e8e57600080fd5b5051919050565b60005b83811015611eb0578181015183820152602001611e98565b83811115610b305750506000910152565b60008251611ed3818460208701611e95565b9190910192915050565b60006bffffffffffffffffffffffff80831681811415611eff57611eff611e14565b6001019392505050565b7f4e487b7100000000000000000000000000000000000000000000000000000000600052602160045260246000fd5b6020815260008251806020840152611f57816040850160208701611e95565b601f017fffffffffffffffffffffffffffffffffffffffffffffffffffffffffffffffe016919091016040019291505056fe416464726573733a206c6f772d6c6576656c2064656c65676174652063616c6c206661696c6564a26469706673582212200da50aec79f5d7861653ddcfa364aa26bf4b5b68112f2f43cce5ab18540747f664736f6c634300080c0033",
  "devdoc": {
    "kind": "dev",
    "methods": {},
    "version": 1
  },
  "userdoc": {
    "kind": "user",
    "methods": {
      "createAccount(address,uint256)": {
        "notice": "create an account, and return its address. returns the address even if the account is already deployed. Note that during UserOperation execution, this method is called only if the account is not deployed. This method returns an existing account address so that entryPoint.getSenderAddress() would work even after account creation"
      },
      "getAddress(address,uint256)": {
        "notice": "calculate the counterfactual address of this account as it would be returned by createAccount()"
      }
    },
    "notice": "A sample factory contract for Wallet A UserOperations \"initCode\" holds the address of the factory, and a method call (to createAccount, in this sample factory). The factory's createAccount returns the target account address even if it is already installed. This way, the entryPoint.getSenderAddress() can be called either before or after the account is created.",
    "version": 1
  },
  "storageLayout": {
    "storage": [],
    "types": null
  }
}