{
  "address": "0xEe5C82eDfB590526115B0B37fAcDC75844Bcf31F",
  "abi": [
    {
      "inputs": [
        {
          "internalType": "uint256",
          "name": "preOpGas",
          "type": "uint256"
        },
        {
          "internalType": "uint256",
          "name": "paid",
          "type": "uint256"
        },
        {
          "internalType": "uint48",
          "name": "validAfter",
          "type": "uint48"
        },
        {
          "internalType": "uint48",
          "name": "validUntil",
          "type": "uint48"
        },
        {
          "internalType": "bool",
          "name": "targetSuccess",
          "type": "bool"
        },
        {
          "internalType": "bytes",
          "name": "targetResult",
          "type": "bytes"
        }
      ],
      "name": "ExecutionResult",
      "type": "error"
    },
    {
      "inputs": [
        {
          "internalType": "uint256",
          "name": "opIndex",
          "type": "uint256"
        },
        {
          "internalType": "string",
          "name": "reason",
          "type": "string"
        }
      ],
      "name": "FailedOp",
      "type": "error"
    },
    {
      "inputs": [
        {
          "internalType": "address",
          "name": "sender",
          "type": "address"
        }
      ],
      "name": "SenderAddressResult",
      "type": "error"
    },
    {
      "inputs": [
        {
          "internalType": "address",
          "name": "aggregator",
          "type": "address"
        }
      ],
      "name": "SignatureValidationFailed",
      "type": "error"
    },
    {
      "inputs": [
        {
          "components": [
            {
              "internalType": "uint256",
              "name": "preOpGas",
              "type": "uint256"
            },
            {
              "internalType": "uint256",
              "name": "prefund",
              "type": "uint256"
            },
            {
              "internalType": "bool",
              "name": "sigFailed",
              "type": "bool"
            },
            {
              "internalType": "uint48",
              "name": "validAfter",
              "type": "uint48"
            },
            {
              "internalType": "uint48",
              "name": "validUntil",
              "type": "uint48"
            },
            {
              "internalType": "bytes",
              "name": "paymasterContext",
              "type": "bytes"
            }
          ],
          "internalType": "struct IEntryPoint.ReturnInfo",
          "name": "returnInfo",
          "type": "tuple"
        },
        {
          "components": [
            {
              "internalType": "uint256",
              "name": "stake",
              "type": "uint256"
            },
            {
              "internalType": "uint256",
              "name": "unstakeDelaySec",
              "type": "uint256"
            }
          ],
          "internalType": "struct IStakeManager.StakeInfo",
          "name": "senderInfo",
          "type": "tuple"
        },
        {
          "components": [
            {
              "internalType": "uint256",
              "name": "stake",
              "type": "uint256"
            },
            {
              "internalType": "uint256",
              "name": "unstakeDelaySec",
              "type": "uint256"
            }
          ],
          "internalType": "struct IStakeManager.StakeInfo",
          "name": "factoryInfo",
          "type": "tuple"
        },
        {
          "components": [
            {
              "internalType": "uint256",
              "name": "stake",
              "type": "uint256"
            },
            {
              "internalType": "uint256",
              "name": "unstakeDelaySec",
              "type": "uint256"
            }
          ],
          "internalType": "struct IStakeManager.StakeInfo",
          "name": "paymasterInfo",
          "type": "tuple"
        }
      ],
      "name": "ValidationResult",
      "type": "error"
    },
    {
      "inputs": [
        {
          "components": [
            {
              "internalType": "uint256",
              "name": "preOpGas",
              "type": "uint256"
            },
            {
              "internalType": "uint256",
              "name": "prefund",
              "type": "uint256"
            },
            {
              "internalType": "bool",
              "name": "sigFailed",
              "type": "bool"
            },
            {
              "internalType": "uint48",
              "name": "validAfter",
              "type": "uint48"
            },
            {
              "internalType": "uint48",
              "name": "validUntil",
              "type": "uint48"
            },
            {
              "internalType": "bytes",
              "name": "paymasterContext",
              "type": "bytes"
            }
          ],
          "internalType": "struct IEntryPoint.ReturnInfo",
          "name": "returnInfo",
          "type": "tuple"
        },
        {
          "components": [
            {
              "internalType": "uint256",
              "name": "stake",
              "type": "uint256"
            },
            {
              "internalType": "uint256",
              "name": "unstakeDelaySec",
              "type": "uint256"
            }
          ],
          "internalType": "struct IStakeManager.StakeInfo",
          "name": "senderInfo",
          "type": "tuple"
        },
        {
          "components": [
            {
              "internalType": "uint256",
              "name": "stake",
              "type": "uint256"
            },
            {
              "internalType": "uint256",
              "name": "unstakeDelaySec",
              "type": "uint256"
            }
          ],
          "internalType": "struct IStakeManager.StakeInfo",
          "name": "factoryInfo",
          "type": "tuple"
        },
        {
          "components": [
            {
              "internalType": "uint256",
              "name": "stake",
              "type": "uint256"
            },
            {
              "internalType": "uint256",
              "name": "unstakeDelaySec",
              "type": "uint256"
            }
          ],
          "internalType": "struct IStakeManager.StakeInfo",
          "name": "paymasterInfo",
          "type": "tuple"
        },
        {
          "components": [
            {
              "internalType": "address",
              "name": "aggregator",
              "type": "address"
            },
            {
              "components": [
                {
                  "internalType": "uint256",
                  "name": "stake",
                  "type": "uint256"
                },
                {
                  "internalType": "uint256",
                  "name": "unstakeDelaySec",
                  "type": "uint256"
                }
              ],
              "internalType": "struct IStakeManager.StakeInfo",
              "name": "stakeInfo",
              "type": "tuple"
            }
          ],
          "internalType": "struct IEntryPoint.AggregatorStakeInfo",
          "name": "aggregatorInfo",
          "type": "tuple"
        }
      ],
      "name": "ValidationResultWithAggregation",
      "type": "error"
    },
    {
      "anonymous": false,
      "inputs": [
        {
          "indexed": true,
          "internalType": "bytes32",
          "name": "userOpHash",
          "type": "bytes32"
        },
        {
          "indexed": true,
          "internalType": "address",
          "name": "sender",
          "type": "address"
        },
        {
          "indexed": false,
          "internalType": "address",
          "name": "factory",
          "type": "address"
        },
        {
          "indexed": false,
          "internalType": "address",
          "name": "paymaster",
          "type": "address"
        }
      ],
      "name": "AccountDeployed",
      "type": "event"
    },
    {
      "anonymous": false,
      "inputs": [
        {
          "indexed": true,
          "internalType": "address",
          "name": "account",
          "type": "address"
        },
        {
          "indexed": false,
          "internalType": "uint256",
          "name": "totalDeposit",
          "type": "uint256"
        }
      ],
      "name": "Deposited",
      "type": "event"
    },
    {
      "anonymous": false,
      "inputs": [
        {
          "indexed": true,
          "internalType": "address",
          "name": "aggregator",
          "type": "address"
        }
      ],
      "name": "SignatureAggregatorChanged",
      "type": "event"
    },
    {
      "anonymous": false,
      "inputs": [
        {
          "indexed": true,
          "internalType": "address",
          "name": "account",
          "type": "address"
        },
        {
          "indexed": false,
          "internalType": "uint256",
          "name": "totalStaked",
          "type": "uint256"
        },
        {
          "indexed": false,
          "internalType": "uint256",
          "name": "unstakeDelaySec",
          "type": "uint256"
        }
      ],
      "name": "StakeLocked",
      "type": "event"
    },
    {
      "anonymous": false,
      "inputs": [
        {
          "indexed": true,
          "internalType": "address",
          "name": "account",
          "type": "address"
        },
        {
          "indexed": false,
          "internalType": "uint256",
          "name": "withdrawTime",
          "type": "uint256"
        }
      ],
      "name": "StakeUnlocked",
      "type": "event"
    },
    {
      "anonymous": false,
      "inputs": [
        {
          "indexed": true,
          "internalType": "address",
          "name": "account",
          "type": "address"
        },
        {
          "indexed": false,
          "internalType": "address",
          "name": "withdrawAddress",
          "type": "address"
        },
        {
          "indexed": false,
          "internalType": "uint256",
          "name": "amount",
          "type": "uint256"
        }
      ],
      "name": "StakeWithdrawn",
      "type": "event"
    },
    {
      "anonymous": false,
      "inputs": [
        {
          "indexed": true,
          "internalType": "bytes32",
          "name": "userOpHash",
          "type": "bytes32"
        },
        {
          "indexed": true,
          "internalType": "address",
          "name": "sender",
          "type": "address"
        },
        {
          "indexed": true,
          "internalType": "address",
          "name": "paymaster",
          "type": "address"
        },
        {
          "indexed": false,
          "internalType": "uint256",
          "name": "nonce",
          "type": "uint256"
        },
        {
          "indexed": false,
          "internalType": "bool",
          "name": "success",
          "type": "bool"
        },
        {
          "indexed": false,
          "internalType": "uint256",
          "name": "actualGasCost",
          "type": "uint256"
        },
        {
          "indexed": false,
          "internalType": "uint256",
          "name": "actualGasUsed",
          "type": "uint256"
        }
      ],
      "name": "UserOperationEvent",
      "type": "event"
    },
    {
      "anonymous": false,
      "inputs": [
        {
          "indexed": true,
          "internalType": "bytes32",
          "name": "userOpHash",
          "type": "bytes32"
        },
        {
          "indexed": true,
          "internalType": "address",
          "name": "sender",
          "type": "address"
        },
        {
          "indexed": false,
          "internalType": "uint256",
          "name": "nonce",
          "type": "uint256"
        },
        {
          "indexed": false,
          "internalType": "bytes",
          "name": "revertReason",
          "type": "bytes"
        }
      ],
      "name": "UserOperationRevertReason",
      "type": "event"
    },
    {
      "anonymous": false,
      "inputs": [
        {
          "indexed": true,
          "internalType": "address",
          "name": "account",
          "type": "address"
        },
        {
          "indexed": false,
          "internalType": "address",
          "name": "withdrawAddress",
          "type": "address"
        },
        {
          "indexed": false,
          "internalType": "uint256",
          "name": "amount",
          "type": "uint256"
        }
      ],
      "name": "Withdrawn",
      "type": "event"
    },
    {
      "inputs": [],
      "name": "SIG_VALIDATION_FAILED",
      "outputs": [
        {
          "internalType": "uint256",
          "name": "",
          "type": "uint256"
        }
      ],
      "stateMutability": "view",
      "type": "function"
    },
    {
      "inputs": [
        {
          "internalType": "bytes",
          "name": "initCode",
          "type": "bytes"
        },
        {
          "internalType": "address",
          "name": "sender",
          "type": "address"
        },
        {
          "internalType": "bytes",
          "name": "paymasterAndData",
          "type": "bytes"
        }
      ],
      "name": "_validateSenderAndPaymaster",
      "outputs": [],
      "stateMutability": "view",
      "type": "function"
    },
    {
      "inputs": [
        {
          "internalType": "uint32",
          "name": "unstakeDelaySec",
          "type": "uint32"
        }
      ],
      "name": "addStake",
      "outputs": [],
      "stateMutability": "payable",
      "type": "function"
    },
    {
      "inputs": [
        {
          "internalType": "address",
          "name": "account",
          "type": "address"
        }
      ],
      "name": "balanceOf",
      "outputs": [
        {
          "internalType": "uint256",
          "name": "",
          "type": "uint256"
        }
      ],
      "stateMutability": "view",
      "type": "function"
    },
    {
      "inputs": [
        {
          "internalType": "address",
          "name": "account",
          "type": "address"
        }
      ],
      "name": "depositTo",
      "outputs": [],
      "stateMutability": "payable",
      "type": "function"
    },
    {
      "inputs": [
        {
          "internalType": "address",
          "name": "",
          "type": "address"
        }
      ],
      "name": "deposits",
      "outputs": [
        {
          "internalType": "uint112",
          "name": "deposit",
          "type": "uint112"
        },
        {
          "internalType": "bool",
          "name": "staked",
          "type": "bool"
        },
        {
          "internalType": "uint112",
          "name": "stake",
          "type": "uint112"
        },
        {
          "internalType": "uint32",
          "name": "unstakeDelaySec",
          "type": "uint32"
        },
        {
          "internalType": "uint48",
          "name": "withdrawTime",
          "type": "uint48"
        }
      ],
      "stateMutability": "view",
      "type": "function"
    },
    {
      "inputs": [
        {
          "internalType": "address",
          "name": "account",
          "type": "address"
        }
      ],
      "name": "getDepositInfo",
      "outputs": [
        {
          "components": [
            {
              "internalType": "uint112",
              "name": "deposit",
              "type": "uint112"
            },
            {
              "internalType": "bool",
              "name": "staked",
              "type": "bool"
            },
            {
              "internalType": "uint112",
              "name": "stake",
              "type": "uint112"
            },
            {
              "internalType": "uint32",
              "name": "unstakeDelaySec",
              "type": "uint32"
            },
            {
              "internalType": "uint48",
              "name": "withdrawTime",
              "type": "uint48"
            }
          ],
          "internalType": "struct IStakeManager.DepositInfo",
          "name": "info",
          "type": "tuple"
        }
      ],
      "stateMutability": "view",
      "type": "function"
    },
    {
      "inputs": [
        {
          "internalType": "bytes",
          "name": "initCode",
          "type": "bytes"
        }
      ],
      "name": "getSenderAddress",
      "outputs": [],
      "stateMutability": "nonpayable",
      "type": "function"
    },
    {
      "inputs": [
        {
          "components": [
            {
              "internalType": "address",
              "name": "sender",
              "type": "address"
            },
            {
              "internalType": "uint256",
              "name": "nonce",
              "type": "uint256"
            },
            {
              "internalType": "bytes",
              "name": "initCode",
              "type": "bytes"
            },
            {
              "internalType": "bytes",
              "name": "callData",
              "type": "bytes"
            },
            {
              "internalType": "uint256",
              "name": "callGasLimit",
              "type": "uint256"
            },
            {
              "internalType": "uint256",
              "name": "verificationGasLimit",
              "type": "uint256"
            },
            {
              "internalType": "uint256",
              "name": "preVerificationGas",
              "type": "uint256"
            },
            {
              "internalType": "uint256",
              "name": "maxFeePerGas",
              "type": "uint256"
            },
            {
              "internalType": "uint256",
              "name": "maxPriorityFeePerGas",
              "type": "uint256"
            },
            {
              "internalType": "bytes",
              "name": "paymasterAndData",
              "type": "bytes"
            },
            {
              "internalType": "bytes",
              "name": "signature",
              "type": "bytes"
            }
          ],
          "internalType": "struct UserOperation",
          "name": "userOp",
          "type": "tuple"
        }
      ],
      "name": "getUserOpHash",
      "outputs": [
        {
          "internalType": "bytes32",
          "name": "",
          "type": "bytes32"
        }
      ],
      "stateMutability": "view",
      "type": "function"
    },
    {
      "inputs": [
        {
          "components": [
            {
              "components": [
                {
                  "internalType": "address",
                  "name": "sender",
                  "type": "address"
                },
                {
                  "internalType": "uint256",
                  "name": "nonce",
                  "type": "uint256"
                },
                {
                  "internalType": "bytes",
                  "name": "initCode",
                  "type": "bytes"
                },
                {
                  "internalType": "bytes",
                  "name": "callData",
                  "type": "bytes"
                },
                {
                  "internalType": "uint256",
                  "name": "callGasLimit",
                  "type": "uint256"
                },
                {
                  "internalType": "uint256",
                  "name": "verificationGasLimit",
                  "type": "uint256"
                },
                {
                  "internalType": "uint256",
                  "name": "preVerificationGas",
                  "type": "uint256"
                },
                {
                  "internalType": "uint256",
                  "name": "maxFeePerGas",
                  "type": "uint256"
                },
                {
                  "internalType": "uint256",
                  "name": "maxPriorityFeePerGas",
                  "type": "uint256"
                },
                {
                  "internalType": "bytes",
                  "name": "paymasterAndData",
                  "type": "bytes"
                },
                {
                  "internalType": "bytes",
                  "name": "signature",
                  "type": "bytes"
                }
              ],
              "internalType": "struct UserOperation[]",
              "name": "userOps",
              "type": "tuple[]"
            },
            {
              "internalType": "contract IAggregator",
              "name": "aggregator",
              "type": "address"
            },
            {
              "internalType": "bytes",
              "name": "signature",
              "type": "bytes"
            }
          ],
          "internalType": "struct IEntryPoint.UserOpsPerAggregator[]",
          "name": "opsPerAggregator",
          "type": "tuple[]"
        },
        {
          "internalType": "address payable",
          "name": "beneficiary",
          "type": "address"
        }
      ],
      "name": "handleAggregatedOps",
      "outputs": [],
      "stateMutability": "nonpayable",
      "type": "function"
    },
    {
      "inputs": [
        {
          "components": [
            {
              "internalType": "address",
              "name": "sender",
              "type": "address"
            },
            {
              "internalType": "uint256",
              "name": "nonce",
              "type": "uint256"
            },
            {
              "internalType": "bytes",
              "name": "initCode",
              "type": "bytes"
            },
            {
              "internalType": "bytes",
              "name": "callData",
              "type": "bytes"
            },
            {
              "internalType": "uint256",
              "name": "callGasLimit",
              "type": "uint256"
            },
            {
              "internalType": "uint256",
              "name": "verificationGasLimit",
              "type": "uint256"
            },
            {
              "internalType": "uint256",
              "name": "preVerificationGas",
              "type": "uint256"
            },
            {
              "internalType": "uint256",
              "name": "maxFeePerGas",
              "type": "uint256"
            },
            {
              "internalType": "uint256",
              "name": "maxPriorityFeePerGas",
              "type": "uint256"
            },
            {
              "internalType": "bytes",
              "name": "paymasterAndData",
              "type": "bytes"
            },
            {
              "internalType": "bytes",
              "name": "signature",
              "type": "bytes"
            }
          ],
          "internalType": "struct UserOperation[]",
          "name": "ops",
          "type": "tuple[]"
        },
        {
          "internalType": "address payable",
          "name": "beneficiary",
          "type": "address"
        }
      ],
      "name": "handleOps",
      "outputs": [],
      "stateMutability": "nonpayable",
      "type": "function"
    },
    {
      "inputs": [
        {
          "internalType": "bytes",
          "name": "callData",
          "type": "bytes"
        },
        {
          "components": [
            {
              "components": [
                {
                  "internalType": "address",
                  "name": "sender",
                  "type": "address"
                },
                {
                  "internalType": "uint256",
                  "name": "nonce",
                  "type": "uint256"
                },
                {
                  "internalType": "uint256",
                  "name": "callGasLimit",
                  "type": "uint256"
                },
                {
                  "internalType": "uint256",
                  "name": "verificationGasLimit",
                  "type": "uint256"
                },
                {
                  "internalType": "uint256",
                  "name": "preVerificationGas",
                  "type": "uint256"
                },
                {
                  "internalType": "address",
                  "name": "paymaster",
                  "type": "address"
                },
                {
                  "internalType": "uint256",
                  "name": "maxFeePerGas",
                  "type": "uint256"
                },
                {
                  "internalType": "uint256",
                  "name": "maxPriorityFeePerGas",
                  "type": "uint256"
                }
              ],
              "internalType": "struct EntryPoint.MemoryUserOp",
              "name": "mUserOp",
              "type": "tuple"
            },
            {
              "internalType": "bytes32",
              "name": "userOpHash",
              "type": "bytes32"
            },
            {
              "internalType": "uint256",
              "name": "prefund",
              "type": "uint256"
            },
            {
              "internalType": "uint256",
              "name": "contextOffset",
              "type": "uint256"
            },
            {
              "internalType": "uint256",
              "name": "preOpGas",
              "type": "uint256"
            }
          ],
          "internalType": "struct EntryPoint.UserOpInfo",
          "name": "opInfo",
          "type": "tuple"
        },
        {
          "internalType": "bytes",
          "name": "context",
          "type": "bytes"
        }
      ],
      "name": "innerHandleOp",
      "outputs": [
        {
          "internalType": "uint256",
          "name": "actualGasCost",
          "type": "uint256"
        }
      ],
      "stateMutability": "nonpayable",
      "type": "function"
    },
    {
      "inputs": [
        {
          "components": [
            {
              "internalType": "address",
              "name": "sender",
              "type": "address"
            },
            {
              "internalType": "uint256",
              "name": "nonce",
              "type": "uint256"
            },
            {
              "internalType": "bytes",
              "name": "initCode",
              "type": "bytes"
            },
            {
              "internalType": "bytes",
              "name": "callData",
              "type": "bytes"
            },
            {
              "internalType": "uint256",
              "name": "callGasLimit",
              "type": "uint256"
            },
            {
              "internalType": "uint256",
              "name": "verificationGasLimit",
              "type": "uint256"
            },
            {
              "internalType": "uint256",
              "name": "preVerificationGas",
              "type": "uint256"
            },
            {
              "internalType": "uint256",
              "name": "maxFeePerGas",
              "type": "uint256"
            },
            {
              "internalType": "uint256",
              "name": "maxPriorityFeePerGas",
              "type": "uint256"
            },
            {
              "internalType": "bytes",
              "name": "paymasterAndData",
              "type": "bytes"
            },
            {
              "internalType": "bytes",
              "name": "signature",
              "type": "bytes"
            }
          ],
          "internalType": "struct UserOperation",
          "name": "op",
          "type": "tuple"
        },
        {
          "internalType": "address",
          "name": "target",
          "type": "address"
        },
        {
          "internalType": "bytes",
          "name": "targetCallData",
          "type": "bytes"
        }
      ],
      "name": "simulateHandleOp",
      "outputs": [],
      "stateMutability": "nonpayable",
      "type": "function"
    },
    {
      "inputs": [
        {
          "components": [
            {
              "internalType": "address",
              "name": "sender",
              "type": "address"
            },
            {
              "internalType": "uint256",
              "name": "nonce",
              "type": "uint256"
            },
            {
              "internalType": "bytes",
              "name": "initCode",
              "type": "bytes"
            },
            {
              "internalType": "bytes",
              "name": "callData",
              "type": "bytes"
            },
            {
              "internalType": "uint256",
              "name": "callGasLimit",
              "type": "uint256"
            },
            {
              "internalType": "uint256",
              "name": "verificationGasLimit",
              "type": "uint256"
            },
            {
              "internalType": "uint256",
              "name": "preVerificationGas",
              "type": "uint256"
            },
            {
              "internalType": "uint256",
              "name": "maxFeePerGas",
              "type": "uint256"
            },
            {
              "internalType": "uint256",
              "name": "maxPriorityFeePerGas",
              "type": "uint256"
            },
            {
              "internalType": "bytes",
              "name": "paymasterAndData",
              "type": "bytes"
            },
            {
              "internalType": "bytes",
              "name": "signature",
              "type": "bytes"
            }
          ],
          "internalType": "struct UserOperation",
          "name": "userOp",
          "type": "tuple"
        }
      ],
      "name": "simulateValidation",
      "outputs": [],
      "stateMutability": "nonpayable",
      "type": "function"
    },
    {
      "inputs": [],
      "name": "unlockStake",
      "outputs": [],
      "stateMutability": "nonpayable",
      "type": "function"
    },
    {
      "inputs": [
        {
          "internalType": "address payable",
          "name": "withdrawAddress",
          "type": "address"
        }
      ],
      "name": "withdrawStake",
      "outputs": [],
      "stateMutability": "nonpayable",
      "type": "function"
    },
    {
      "inputs": [
        {
          "internalType": "address payable",
          "name": "withdrawAddress",
          "type": "address"
        },
        {
          "internalType": "uint256",
          "name": "withdrawAmount",
          "type": "uint256"
        }
      ],
      "name": "withdrawTo",
      "outputs": [],
      "stateMutability": "nonpayable",
      "type": "function"
    },
    {
      "stateMutability": "payable",
      "type": "receive"
    }
  ],
  "args": [],
  "numDeployments": 4,
  "solcInputHash": "383f10ae15e273f9fc9ce7659b7857a9",
  "bytecode": "0x60a0604052604051620000129062000050565b604051809103906000f0801580156200002f573d6000803e3d6000fd5b506001600160a01b03166080523480156200004957600080fd5b506200005e565b61023380620042d083390190565b60805161424f62000081600039600081816112860152612f3a015261424f6000f3fe6080604052600436106101125760003560e01c8063957122ab116100a5578063bb9fe6bf11610074578063d6383f9411610059578063d6383f9414610412578063ee21942314610432578063fc7e286d1461045257600080fd5b8063bb9fe6bf146103dd578063c23a5cea146103f257600080fd5b8063957122ab1461036a5780639b249f691461038a578063a6193531146103aa578063b760faf9146103ca57600080fd5b80634b1d7cf5116100e15780634b1d7cf5146101ad5780635287ce12146101cd57806370a082311461030f5780638f41ec5a1461035557600080fd5b80630396cb60146101275780631d7327561461013a5780631fad948c1461016d578063205c28781461018d57600080fd5b36610122576101203361052c565b005b600080fd5b6101206101353660046131f7565b61059a565b34801561014657600080fd5b5061015a610155366004613425565b6108b5565b6040519081526020015b60405180910390f35b34801561017957600080fd5b50610120610188366004613530565b610a41565b34801561019957600080fd5b506101206101a8366004613587565b610b82565b3480156101b957600080fd5b506101206101c8366004613530565b610d36565b3480156101d957600080fd5b506102b06101e83660046135b3565b6040805160a081018252600080825260208201819052918101829052606081018290526080810191909152506001600160a01b031660009081526020818152604091829020825160a08101845281546dffffffffffffffffffffffffffff80821683526e010000000000000000000000000000820460ff161515948301949094526f0100000000000000000000000000000090049092169282019290925260019091015463ffffffff81166060830152640100000000900465ffffffffffff16608082015290565b6040805182516dffffffffffffffffffffffffffff908116825260208085015115159083015283830151169181019190915260608083015163ffffffff169082015260809182015165ffffffffffff169181019190915260a001610164565b34801561031b57600080fd5b5061015a61032a3660046135b3565b6001600160a01b03166000908152602081905260409020546dffffffffffffffffffffffffffff1690565b34801561036157600080fd5b5061015a600181565b34801561037657600080fd5b506101206103853660046135d0565b61115c565b34801561039657600080fd5b506101206103a5366004613655565b611256565b3480156103b657600080fd5b5061015a6103c53660046136b0565b61133e565b6101206103d83660046135b3565b61052c565b3480156103e957600080fd5b50610120611380565b3480156103fe57600080fd5b5061012061040d3660046135b3565b6114fd565b34801561041e57600080fd5b5061012061042d3660046136e5565b61177b565b34801561043e57600080fd5b5061012061044d3660046136b0565b61188f565b34801561045e57600080fd5b506104df61046d3660046135b3565b600060208190529081526040902080546001909101546dffffffffffffffffffffffffffff808316926e010000000000000000000000000000810460ff16926f010000000000000000000000000000009091049091169063ffffffff811690640100000000900465ffffffffffff1685565b604080516dffffffffffffffffffffffffffff96871681529415156020860152929094169183019190915263ffffffff16606082015265ffffffffffff909116608082015260a001610164565b6105368134611b9c565b6001600160a01b03811660008181526020818152604091829020805492516dffffffffffffffffffffffffffff909316835292917f2da466a7b24304f47e87fa2e1e5a81b9831ce54fec19055ce277ca2f39ba42c491015b60405180910390a25050565b33600090815260208190526040902063ffffffff82166106015760405162461bcd60e51b815260206004820152601a60248201527f6d757374207370656369667920756e7374616b652064656c617900000000000060448201526064015b60405180910390fd5b600181015463ffffffff908116908316101561065f5760405162461bcd60e51b815260206004820152601c60248201527f63616e6e6f7420646563726561736520756e7374616b652074696d650000000060448201526064016105f8565b80546000906106929034906f0100000000000000000000000000000090046dffffffffffffffffffffffffffff16613776565b9050600081116106e45760405162461bcd60e51b815260206004820152601260248201527f6e6f207374616b6520737065636966696564000000000000000000000000000060448201526064016105f8565b6dffffffffffffffffffffffffffff8111156107425760405162461bcd60e51b815260206004820152600e60248201527f7374616b65206f766572666c6f7700000000000000000000000000000000000060448201526064016105f8565b6040805160a08101825283546dffffffffffffffffffffffffffff90811682526001602080840182815286841685870190815263ffffffff808b16606088019081526000608089018181523380835296829052908a9020985189549551945189166f01000000000000000000000000000000027fffffff0000000000000000000000000000ffffffffffffffffffffffffffffff9515156e010000000000000000000000000000027fffffffffffffffffffffffffffffffffff0000000000000000000000000000009097169190991617949094179290921695909517865551949092018054925165ffffffffffff16640100000000027fffffffffffffffffffffffffffffffffffffffffffff00000000000000000000909316949093169390931717905590517fa5ae833d0bb1dcd632d98a8b70973e8516812898e19bf27b70071ebc8dc52c01906108a8908490879091825263ffffffff16602082015260400190565b60405180910390a2505050565b6000805a905033301461090a5760405162461bcd60e51b815260206004820152601760248201527f4141393220696e7465726e616c2063616c6c206f6e6c7900000000000000000060448201526064016105f8565b8451604081015160608201518101611388015a101561094d577fdeaddead0000000000000000000000000000000000000000000000000000000060005260206000fd5b8751600090156109e157600061096a846000015160008c86611c72565b9050806109df57600061097e610800611c8a565b8051909150156109d95784600001516001600160a01b03168a602001517f1c4fada7374c0a9ee8841fc38afe82932dc0f8e69012e927f061a8bae611a2018760200151846040516109d09291906137e6565b60405180910390a35b60019250505b505b600088608001515a8603019050610a336000838b8b8b8080601f016020809104026020016040519081016040528093929190818152602001838380828437600092019190915250889250611cb6915050565b9a9950505050505050505050565b8160008167ffffffffffffffff811115610a5d57610a5d61321d565b604051908082528060200260200182016040528015610a9657816020015b610a8361316d565b815260200190600190039081610a7b5790505b50905060005b82811015610b0f576000828281518110610ab857610ab86137ff565b60200260200101519050600080610af3848a8a87818110610adb57610adb6137ff565b9050602002810190610aed919061382e565b85611feb565b91509150610b04848383600061216d565b505050600101610a9c565b506000805b83811015610b6f57610b6381888884818110610b3257610b326137ff565b9050602002810190610b44919061382e565b858481518110610b5657610b566137ff565b6020026020010151612337565b90910190600101610b14565b50610b7a8482612486565b505050505050565b33600090815260208190526040902080546dffffffffffffffffffffffffffff16821115610bf25760405162461bcd60e51b815260206004820152601960248201527f576974686472617720616d6f756e7420746f6f206c617267650000000000000060448201526064016105f8565b8054610c0f9083906dffffffffffffffffffffffffffff1661386c565b81547fffffffffffffffffffffffffffffffffffff0000000000000000000000000000166dffffffffffffffffffffffffffff91909116178155604080516001600160a01b03851681526020810184905233917fd1c19fbcd4551a5edfb66d43d2e337c04837afda3482b42bdf569a8fccdae5fb910160405180910390a26000836001600160a01b03168360405160006040518083038185875af1925050503d8060008114610cda576040519150601f19603f3d011682016040523d82523d6000602084013e610cdf565b606091505b5050905080610d305760405162461bcd60e51b815260206004820152601260248201527f6661696c656420746f207769746864726177000000000000000000000000000060448201526064016105f8565b50505050565b816000805b82811015610ec35736868683818110610d5657610d566137ff565b9050602002810190610d689190613883565b9050366000610d7783806138b7565b90925090506000610d8e60408501602086016135b3565b90506001600160a01b03811660011415610dea5760405162461bcd60e51b815260206004820152601760248201527f4141393620696e76616c69642061676772656761746f7200000000000000000060448201526064016105f8565b6001600160a01b03811615610ea0576001600160a01b03811663e3563a4f8484610e17604089018961391f565b6040518563ffffffff1660e01b8152600401610e369493929190613b0a565b60006040518083038186803b158015610e4e57600080fd5b505afa925050508015610e5f575060015b610ea0576040517f86a9f7500000000000000000000000000000000000000000000000000000000081526001600160a01b03821660048201526024016105f8565b610eaa8287613776565b9550505050508080610ebb90613bc1565b915050610d3b565b5060008167ffffffffffffffff811115610edf57610edf61321d565b604051908082528060200260200182016040528015610f1857816020015b610f0561316d565b815260200190600190039081610efd5790505b5090506000805b848110156110035736888883818110610f3a57610f3a6137ff565b9050602002810190610f4c9190613883565b9050366000610f5b83806138b7565b90925090506000610f7260408501602086016135b3565b90508160005b81811015610fea576000898981518110610f9457610f946137ff565b60200260200101519050600080610fb78b898987818110610adb57610adb6137ff565b91509150610fc78483838961216d565b8a610fd181613bc1565b9b50505050508080610fe290613bc1565b915050610f78565b5050505050508080610ffb90613bc1565b915050610f1f565b50600080915060005b8581101561111c5736898983818110611027576110276137ff565b90506020028101906110399190613883565b905061104b60408201602083016135b3565b6001600160a01b03167f575ff3acadd5ab348fe1855e217e0f3678f8d767d7494c9f9fefbee2e17cca4d60405160405180910390a236600061108d83806138b7565b90925090508060005b81811015611104576110d8888585848181106110b4576110b46137ff565b90506020028101906110c6919061382e565b8b8b81518110610b5657610b566137ff565b6110e29088613776565b9650876110ee81613bc1565b98505080806110fc90613bc1565b915050611096565b5050505050808061111490613bc1565b91505061100c565b506040516000907f575ff3acadd5ab348fe1855e217e0f3678f8d767d7494c9f9fefbee2e17cca4d908290a26111528682612486565b5050505050505050565b8315801561117257506001600160a01b0383163b155b156111bf5760405162461bcd60e51b815260206004820152601960248201527f41413230206163636f756e74206e6f74206465706c6f7965640000000000000060448201526064016105f8565b601481106112345760006111d66014828486613bfa565b6111df91613c24565b60601c9050803b6112325760405162461bcd60e51b815260206004820152601b60248201527f41413330207061796d6173746572206e6f74206465706c6f796564000000000060448201526064016105f8565b505b60405162461bcd60e51b815260206004820152600060248201526044016105f8565b6040517f570e1a360000000000000000000000000000000000000000000000000000000081526001600160a01b037f0000000000000000000000000000000000000000000000000000000000000000169063570e1a36906112bd9085908590600401613c6c565b6020604051808303816000875af11580156112dc573d6000803e3d6000fd5b505050506040513d601f19601f820116820180604052508101906113009190613c80565b6040517f6ca7b8060000000000000000000000000000000000000000000000000000000081526001600160a01b0390911660048201526024016105f8565b600061134982612584565b6040805160208101929092523090820152466060820152608001604051602081830303815290604052805190602001209050919050565b336000908152602081905260409020600181015463ffffffff166113e65760405162461bcd60e51b815260206004820152600a60248201527f6e6f74207374616b65640000000000000000000000000000000000000000000060448201526064016105f8565b80546e010000000000000000000000000000900460ff166114495760405162461bcd60e51b815260206004820152601160248201527f616c726561647920756e7374616b696e6700000000000000000000000000000060448201526064016105f8565b60018101546000906114619063ffffffff1642613c9d565b6001830180547fffffffffffffffffffffffffffffffffffffffffffff000000000000ffffffff1664010000000065ffffffffffff84169081029190911790915583547fffffffffffffffffffffffffffffffffff00ffffffffffffffffffffffffffff16845560405190815290915033907ffa9b3c14cc825c412c9ed81b3ba365a5b459439403f18829e572ed53a4180f0a9060200161058e565b33600090815260208190526040902080546f0100000000000000000000000000000090046dffffffffffffffffffffffffffff168061157e5760405162461bcd60e51b815260206004820152601460248201527f4e6f207374616b6520746f20776974686472617700000000000000000000000060448201526064016105f8565b6001820154640100000000900465ffffffffffff166115df5760405162461bcd60e51b815260206004820152601d60248201527f6d7573742063616c6c20756e6c6f636b5374616b65282920666972737400000060448201526064016105f8565b60018201544264010000000090910465ffffffffffff1611156116445760405162461bcd60e51b815260206004820152601b60248201527f5374616b65207769746864726177616c206973206e6f7420647565000000000060448201526064016105f8565b6001820180547fffffffffffffffffffffffffffffffffffffffffffff0000000000000000000016905581547fffffff0000000000000000000000000000ffffffffffffffffffffffffffffff168255604080516001600160a01b03851681526020810183905233917fb7c918e0e249f999e965cafeb6c664271b3f4317d296461500e71da39f0cbda3910160405180910390a26000836001600160a01b03168260405160006040518083038185875af1925050503d8060008114611725576040519150601f19603f3d011682016040523d82523d6000602084013e61172a565b606091505b5050905080610d305760405162461bcd60e51b815260206004820152601860248201527f6661696c656420746f207769746864726177207374616b65000000000000000060448201526064016105f8565b61178361316d565b61178c8561259d565b60008061179b60008885611feb565b9150915060006117ab8383612678565b90506117b643600052565b60006117c460008a87612337565b90506117cf43600052565b600060606001600160a01b038a161561184557896001600160a01b031689896040516117fc929190613cc7565b6000604051808303816000865af19150503d8060008114611839576040519150601f19603f3d011682016040523d82523d6000602084013e61183e565b606091505b5090925090505b8660800151838560200151866040015185856040517f8b7ac9800000000000000000000000000000000000000000000000000000000081526004016105f896959493929190613cd7565b61189761316d565b6118a08261259d565b6000806118af60008585611feb565b845160a00151604080518082018252600080825260208083018281526001600160a01b03958616835282825284832080546dffffffffffffffffffffffffffff6f01000000000000000000000000000000918290048116875260019283015463ffffffff9081169094528d51518851808a018a5287815280870188815291909a1687528686528887208054939093049091168952910154909116905283518085019094528184528301529395509193509036600061197060408a018a61391f565b9092509050600060148210156119875760006119a2565b611995601460008486613bfa565b61199e91613c24565b60601c5b604080518082018252600080825260208083018281526001600160a01b03861683529082905292902080546f0100000000000000000000000000000090046dffffffffffffffffffffffffffff1682526001015463ffffffff1690915290915093505050506000611a138686612678565b9050600081600001519050600060016001600160a01b0316826001600160a01b031614905060006040518060c001604052808b6080015181526020018b6040015181526020018315158152602001856020015165ffffffffffff168152602001856040015165ffffffffffff168152602001611a908c6060015190565b905290506001600160a01b03831615801590611ab657506001600160a01b038316600114155b15611b62576040805180820182526001600160a01b03851680825282518084018452600080825260208083018281529382528181529085902080546f0100000000000000000000000000000090046dffffffffffffffffffffffffffff1683526001015463ffffffff169092529082015290517ffaecb4e40000000000000000000000000000000000000000000000000000000081526105f8908390899089908c908690600401613d79565b808686896040517fe0cff05f0000000000000000000000000000000000000000000000000000000081526004016105f89493929190613df9565b6001600160a01b03821660009081526020819052604081208054909190611bd49084906dffffffffffffffffffffffffffff16613776565b90506dffffffffffffffffffffffffffff811115611c345760405162461bcd60e51b815260206004820152601060248201527f6465706f736974206f766572666c6f770000000000000000000000000000000060448201526064016105f8565b81547fffffffffffffffffffffffffffffffffffff0000000000000000000000000000166dffffffffffffffffffffffffffff919091161790555050565b6000806000845160208601878987f195945050505050565b60603d82811115611c985750815b604051602082018101604052818152816000602083013e9392505050565b6000805a855190915060009081611ccc82612744565b60a08301519091506001600160a01b038116611ceb5782519350611ed0565b809350600088511115611ed057868202955060028a6002811115611d1157611d11613e50565b14611d9c5760608301516040517fa9a234090000000000000000000000000000000000000000000000000000000081526001600160a01b0383169163a9a2340991611d64908e908d908c90600401613e7f565b600060405180830381600088803b158015611d7e57600080fd5b5087f1158015611d92573d6000803e3d6000fd5b5050505050611ed0565b60608301516040517fa9a234090000000000000000000000000000000000000000000000000000000081526001600160a01b0383169163a9a2340991611dea908e908d908c90600401613e7f565b600060405180830381600088803b158015611e0457600080fd5b5087f193505050508015611e16575060015b611ed057611e22613edf565b806308c379a01415611e7c5750611e37613efb565b80611e425750611e7e565b8b81604051602001611e549190613fa3565b60408051601f1981840301815290829052631101335b60e11b82526105f892916004016137e6565b505b8a604051631101335b60e11b81526004016105f89181526040602082018190526012908201527f4141353020706f73744f70207265766572740000000000000000000000000000606082015260800190565b5a85038701965081870295508589604001511015611f39578a604051631101335b60e11b81526004016105f891815260406020808301829052908201527f414135312070726566756e642062656c6f772061637475616c476173436f7374606082015260800190565b6040890151869003611f4b8582611b9c565b6000808c6002811115611f6057611f60613e50565b1490508460a001516001600160a01b031685600001516001600160a01b03168c602001517f49628fd1471006c1482da88028e9ce4dbb080b815c9b0344d39e5a8e6ec1419f8860200151858d8f604051611fd3949392919093845291151560208401526040830152606082015260800190565b60405180910390a45050505050505095945050505050565b60008060005a84519091506120008682612775565b6120098661133e565b6020860152604081015160608201516080830151171760e087013517610100870135176effffffffffffffffffffffffffffff81111561208b5760405162461bcd60e51b815260206004820152601860248201527f41413934206761732076616c756573206f766572666c6f77000000000000000060448201526064016105f8565b6000806120978461286e565b90506120a58a8a8a846128bb565b975091506120b243600052565b60a08401516060906001600160a01b0316156120da576120d58b8b8b8587612b41565b975090505b60005a87039050808b60a00135101561213f578b604051631101335b60e11b81526004016105f8918152604060208201819052601e908201527f41413430206f76657220766572696669636174696f6e4761734c696d69740000606082015260800190565b60408a018390528160608b015260c08b01355a8803018a608001818152505050505050505050935093915050565b60008061217985612d81565b91509150816001600160a01b0316836001600160a01b0316146121e85785604051631101335b60e11b81526004016105f89181526040602082018190526014908201527f41413234207369676e6174757265206572726f72000000000000000000000000606082015260800190565b80156122405785604051631101335b60e11b81526004016105f89181526040602082018190526017908201527f414132322065787069726564206f72206e6f7420647565000000000000000000606082015260800190565b600061224b85612d81565b925090506001600160a01b038116156122b05786604051631101335b60e11b81526004016105f89181526040602082018190526014908201527f41413334207369676e6174757265206572726f72000000000000000000000000606082015260800190565b811561232e5786604051631101335b60e11b81526004016105f89181526040602082018190526021908201527f41413332207061796d61737465722065787069726564206f72206e6f7420647560608201527f6500000000000000000000000000000000000000000000000000000000000000608082015260a00190565b50505050505050565b6000805a9050600061234a846060015190565b905030631d73275661235f606088018861391f565b87856040518563ffffffff1660e01b81526004016123809493929190613fe8565b6020604051808303816000875af19250505080156123bb575060408051601f3d908101601f191682019092526123b89181019061409c565b60015b61247a57600060206000803e506000517fdeaddead000000000000000000000000000000000000000000000000000000008114156124455786604051631101335b60e11b81526004016105f8918152604060208201819052600f908201527f41413935206f7574206f66206761730000000000000000000000000000000000606082015260800190565b600085608001515a612457908661386c565b6124619190613776565b9050612471886002888685611cb6565b9450505061247d565b92505b50509392505050565b6001600160a01b0382166124dc5760405162461bcd60e51b815260206004820152601860248201527f4141393020696e76616c69642062656e6566696369617279000000000000000060448201526064016105f8565b6000826001600160a01b03168260405160006040518083038185875af1925050503d8060008114612529576040519150601f19603f3d011682016040523d82523d6000602084013e61252e565b606091505b505090508061257f5760405162461bcd60e51b815260206004820152601f60248201527f41413931206661696c65642073656e6420746f2062656e65666963696172790060448201526064016105f8565b505050565b600061258f82612dd1565b805190602001209050919050565b3063957122ab6125b0604084018461391f565b6125bd60208601866135b3565b6125cb61012087018761391f565b6040518663ffffffff1660e01b81526004016125eb9594939291906140b5565b60006040518083038186803b15801561260357600080fd5b505afa925050508015612614575060015b61267557612620613edf565b806308c379a014156126695750612635613efb565b80612640575061266b565b80511561266557600081604051631101335b60e11b81526004016105f89291906137e6565b5050565b505b3d6000803e3d6000fd5b50565b604080516060810182526000808252602082018190529181018290529061269e84612e10565b905060006126ab84612e10565b82519091506001600160a01b0381166126c2575080515b602080840151604080860151928501519085015191929165ffffffffffff80831690851610156126f0578193505b8065ffffffffffff168365ffffffffffff16111561270c578092505b5050604080516060810182526001600160a01b03909416845265ffffffffffff92831660208501529116908201529250505092915050565b60c081015160e08201516000919080821415612761575092915050565b61276d82488301612e7e565b949350505050565b61278260208301836135b3565b6001600160a01b0316815260208083013590820152608080830135604083015260a0830135606083015260c0808401359183019190915260e08084013591830191909152610100830135908201523660006127e161012085018561391f565b9092509050801561286157601481101561283d5760405162461bcd60e51b815260206004820152601d60248201527f4141393320696e76616c6964207061796d6173746572416e644461746100000060448201526064016105f8565b61284b601460008385613bfa565b61285491613c24565b60601c60a0840152610d30565b600060a084015250505050565b60a081015160009081906001600160a01b031661288c57600161288f565b60035b60ff16905060008360800151828560600151028560400151010190508360c00151810292505050919050565b60008060005a85518051919250906128e089886128db60408c018c61391f565b612e96565b60a08201516128ee43600052565b60006001600160a01b03821661293d576001600160a01b0383166000908152602081905260409020546dffffffffffffffffffffffffffff1688811161293657808903612939565b60005b9150505b606084015160208a01516040517f3a871cdd0000000000000000000000000000000000000000000000000000000081526001600160a01b03861692633a871cdd929091612990918f9187906004016140eb565b60206040518083038160008887f1935050505080156129cc575060408051601f3d908101601f191682019092526129c99181019061409c565b60015b612a5e576129d8613edf565b806308c379a01415612a0a57506129ed613efb565b806129f85750612a0c565b8b81604051602001611e549190614110565b505b8a604051631101335b60e11b81526004016105f89181526040602082018190526016908201527f4141323320726576657274656420286f72204f4f472900000000000000000000606082015260800190565b95506001600160a01b038216612b2e576001600160a01b038316600090815260208190526040902080546dffffffffffffffffffffffffffff16808a1115612af2578c604051631101335b60e11b81526004016105f89181526040602082018190526017908201527f41413231206469646e2774207061792070726566756e64000000000000000000606082015260800190565b81547fffffffffffffffffffffffffffffffffffff000000000000000000000000000016908a90036dffffffffffffffffffffffffffff161790555b5a85039650505050505094509492505050565b82516060818101519091600091848111612b9d5760405162461bcd60e51b815260206004820152601f60248201527f4141343120746f6f206c6974746c6520766572696669636174696f6e4761730060448201526064016105f8565b60a08201516001600160a01b038116600090815260208190526040902080548784039291906dffffffffffffffffffffffffffff1689811015612c2c578c604051631101335b60e11b81526004016105f8918152604060208201819052601e908201527f41413331207061796d6173746572206465706f73697420746f6f206c6f770000606082015260800190565b8981038260000160006101000a8154816dffffffffffffffffffffffffffff02191690836dffffffffffffffffffffffffffff160217905550826001600160a01b031663f465c77e858e8e602001518e6040518563ffffffff1660e01b8152600401612c9a939291906140eb565b60006040518083038160008887f193505050508015612cdb57506040513d6000823e601f3d908101601f19168201604052612cd89190810190614155565b60015b612d6d57612ce7613edf565b806308c379a01415612d195750612cfc613efb565b80612d075750612d1b565b8d81604051602001611e5491906141e1565b505b8c604051631101335b60e11b81526004016105f89181526040602082018190526016908201527f4141333320726576657274656420286f72204f4f472900000000000000000000606082015260800190565b909e909d509b505050505050505050505050565b60008082612d9457506000928392509050565b6000612d9f84612e10565b9050806040015165ffffffffffff16421180612dc65750806020015165ffffffffffff1642105b905194909350915050565b6060366000612de461014085018561391f565b915091508360208184030360405194506020810185016040528085528082602087013750505050919050565b60408051606081018252600080825260208201819052918101919091528160a081901c65ffffffffffff8116612e49575065ffffffffffff5b604080516060810182526001600160a01b03909316835260d09490941c602083015265ffffffffffff16928101929092525090565b6000818310612e8d5781612e8f565b825b9392505050565b8015610d30578251516001600160a01b0381163b15612f015784604051631101335b60e11b81526004016105f8918152604060208201819052601f908201527f414131302073656e64657220616c726561647920636f6e737472756374656400606082015260800190565b8351606001516040517f570e1a360000000000000000000000000000000000000000000000000000000081526000916001600160a01b037f0000000000000000000000000000000000000000000000000000000000000000169163570e1a369190612f729088908890600401613c6c565b60206040518083038160008887f1158015612f91573d6000803e3d6000fd5b50505050506040513d601f19601f82011682018060405250810190612fb69190613c80565b90506001600160a01b0381166130185785604051631101335b60e11b81526004016105f8918152604060208201819052601b908201527f4141313320696e6974436f6465206661696c6564206f72204f4f470000000000606082015260800190565b816001600160a01b0316816001600160a01b0316146130825785604051631101335b60e11b81526004016105f891815260406020808301829052908201527f4141313420696e6974436f6465206d7573742072657475726e2073656e646572606082015260800190565b6001600160a01b0381163b6130e25785604051631101335b60e11b81526004016105f891815260406020808301829052908201527f4141313520696e6974436f6465206d757374206372656174652073656e646572606082015260800190565b60006130f16014828688613bfa565b6130fa91613c24565b60601c9050826001600160a01b031686602001517fd51a9c61267aa6196961883ecf5ff2da6619c37dac0fa92122513fb32c032d2d83896000015160a0015160405161315c9291906001600160a01b0392831681529116602082015260400190565b60405180910390a350505050505050565b6040518060a001604052806131d260405180610100016040528060006001600160a01b031681526020016000815260200160008152602001600081526020016000815260200160006001600160a01b0316815260200160008152602001600081525090565b8152602001600080191681526020016000815260200160008152602001600081525090565b60006020828403121561320957600080fd5b813563ffffffff81168114612e8f57600080fd5b7f4e487b7100000000000000000000000000000000000000000000000000000000600052604160045260246000fd5b60a0810181811067ffffffffffffffff8211171561326c5761326c61321d565b60405250565b610100810181811067ffffffffffffffff8211171561326c5761326c61321d565b601f19601f830116810181811067ffffffffffffffff821117156132b9576132b961321d565b6040525050565b600067ffffffffffffffff8211156132da576132da61321d565b50601f01601f191660200190565b6001600160a01b038116811461267557600080fd5b8035613308816132e8565b919050565b600081830361018081121561332157600080fd5b60405161332d8161324c565b8092506101008083121561334057600080fd5b604051925061334e83613272565b613357856132fd565b83526020850135602084015260408501356040840152606085013560608401526080850135608084015261338d60a086016132fd565b60a084015260c085013560c084015260e085013560e084015282825280850135602083015250610120840135604082015261014084013560608201526101608401356080820152505092915050565b60008083601f8401126133ee57600080fd5b50813567ffffffffffffffff81111561340657600080fd5b60208301915083602082850101111561341e57600080fd5b9250929050565b6000806000806101c0858703121561343c57600080fd5b843567ffffffffffffffff8082111561345457600080fd5b818701915087601f83011261346857600080fd5b8135613473816132c0565b6040516134808282613293565b8281528a602084870101111561349557600080fd5b826020860160208301376000602084830101528098505050506134bb886020890161330d565b94506101a08701359150808211156134d257600080fd5b506134df878288016133dc565b95989497509550505050565b60008083601f8401126134fd57600080fd5b50813567ffffffffffffffff81111561351557600080fd5b6020830191508360208260051b850101111561341e57600080fd5b60008060006040848603121561354557600080fd5b833567ffffffffffffffff81111561355c57600080fd5b613568868287016134eb565b909450925050602084013561357c816132e8565b809150509250925092565b6000806040838503121561359a57600080fd5b82356135a5816132e8565b946020939093013593505050565b6000602082840312156135c557600080fd5b8135612e8f816132e8565b6000806000806000606086880312156135e857600080fd5b853567ffffffffffffffff8082111561360057600080fd5b61360c89838a016133dc565b909750955060208801359150613621826132e8565b9093506040870135908082111561363757600080fd5b50613644888289016133dc565b969995985093965092949392505050565b6000806020838503121561366857600080fd5b823567ffffffffffffffff81111561367f57600080fd5b61368b858286016133dc565b90969095509350505050565b600061016082840312156136aa57600080fd5b50919050565b6000602082840312156136c257600080fd5b813567ffffffffffffffff8111156136d957600080fd5b61276d84828501613697565b600080600080606085870312156136fb57600080fd5b843567ffffffffffffffff8082111561371357600080fd5b61371f88838901613697565b955060208701359150613731826132e8565b909350604086013590808211156134d257600080fd5b7f4e487b7100000000000000000000000000000000000000000000000000000000600052601160045260246000fd5b6000821982111561378957613789613747565b500190565b60005b838110156137a9578181015183820152602001613791565b83811115610d305750506000910152565b600081518084526137d281602086016020860161378e565b601f01601f19169290920160200192915050565b82815260406020820152600061276d60408301846137ba565b7f4e487b7100000000000000000000000000000000000000000000000000000000600052603260045260246000fd5b600082357ffffffffffffffffffffffffffffffffffffffffffffffffffffffffffffffea183360301811261386257600080fd5b9190910192915050565b60008282101561387e5761387e613747565b500390565b600082357fffffffffffffffffffffffffffffffffffffffffffffffffffffffffffffffa183360301811261386257600080fd5b60008083357fffffffffffffffffffffffffffffffffffffffffffffffffffffffffffffffe18436030181126138ec57600080fd5b83018035915067ffffffffffffffff82111561390757600080fd5b6020019150600581901b360382131561341e57600080fd5b60008083357fffffffffffffffffffffffffffffffffffffffffffffffffffffffffffffffe184360301811261395457600080fd5b83018035915067ffffffffffffffff82111561396f57600080fd5b60200191503681900382131561341e57600080fd5b60008083357fffffffffffffffffffffffffffffffffffffffffffffffffffffffffffffffe18436030181126139b957600080fd5b830160208101925035905067ffffffffffffffff8111156139d957600080fd5b80360383131561341e57600080fd5b818352818160208501375060006020828401015260006020601f19601f840116840101905092915050565b6000610160613a3284613a25856132fd565b6001600160a01b03169052565b60208301356020850152613a496040840184613984565b826040870152613a5c83870182846139e8565b92505050613a6d6060840184613984565b8583036060870152613a808382846139e8565b925050506080830135608085015260a083013560a085015260c083013560c085015260e083013560e0850152610100808401358186015250610120613ac781850185613984565b86840383880152613ad98482846139e8565b9350505050610140613aed81850185613984565b86840383880152613aff8482846139e8565b979650505050505050565b6040808252810184905260006060600586901b830181019083018783805b89811015613baa577fffffffffffffffffffffffffffffffffffffffffffffffffffffffffffffffa087860301845282357ffffffffffffffffffffffffffffffffffffffffffffffffffffffffffffffea18c3603018112613b88578283fd5b613b94868d8301613a13565b9550506020938401939290920191600101613b28565b505050508281036020840152613aff8185876139e8565b60007fffffffffffffffffffffffffffffffffffffffffffffffffffffffffffffffff821415613bf357613bf3613747565b5060010190565b60008085851115613c0a57600080fd5b83861115613c1757600080fd5b5050820193919092039150565b7fffffffffffffffffffffffffffffffffffffffff0000000000000000000000008135818116916014851015613c645780818660140360031b1b83161692505b505092915050565b60208152600061276d6020830184866139e8565b600060208284031215613c9257600080fd5b8151612e8f816132e8565b600065ffffffffffff808316818516808303821115613cbe57613cbe613747565b01949350505050565b8183823760009101908152919050565b868152856020820152600065ffffffffffff8087166040840152808616606084015250831515608083015260c060a0830152613d1660c08301846137ba565b98975050505050505050565b80518252602081015160208301526040810151151560408301526000606082015165ffffffffffff8082166060860152806080850151166080860152505060a082015160c060a085015261276d60c08501826137ba565b6000610140808352613d8d81840189613d22565b915050613da7602083018780518252602090810151910152565b845160608301526020948501516080830152835160a08301529284015160c082015281516001600160a01b031660e0820152908301518051610100830152909201516101209092019190915292915050565b60e081526000613e0c60e0830187613d22565b9050613e25602083018680518252602090810151910152565b8351606083015260208401516080830152825160a0830152602083015160c083015295945050505050565b7f4e487b7100000000000000000000000000000000000000000000000000000000600052602160045260246000fd5b600060038510613eb8577f4e487b7100000000000000000000000000000000000000000000000000000000600052602160045260246000fd5b84825260606020830152613ecf60608301856137ba565b9050826040830152949350505050565b600060033d1115613ef85760046000803e5060005160e01c5b90565b600060443d1015613f095790565b6040517ffffffffffffffffffffffffffffffffffffffffffffffffffffffffffffffffc803d016004833e81513d67ffffffffffffffff8160248401118184111715613f5757505050505090565b8285019150815181811115613f6f5750505050505090565b843d8701016020828501011115613f895750505050505090565b613f9860208286010187613293565b509095945050505050565b7f4141353020706f73744f702072657665727465643a2000000000000000000000815260008251613fdb81601685016020870161378e565b9190910160160192915050565b60006101c0808352613ffd81840187896139e8565b905084516001600160a01b03808251166020860152602082015160408601526040820151606086015260608201516080860152608082015160a08601528060a08301511660c08601525060c081015160e085015260e08101516101008501525060208501516101208401526040850151610140840152606085015161016084015260808501516101808401528281036101a0840152613aff81856137ba565b6000602082840312156140ae57600080fd5b5051919050565b6060815260006140c96060830187896139e8565b6001600160a01b03861660208401528281036040840152613d168185876139e8565b6060815260006140fe6060830186613a13565b60208301949094525060400152919050565b7f414132332072657665727465643a20000000000000000000000000000000000081526000825161414881600f85016020870161378e565b91909101600f0192915050565b6000806040838503121561416857600080fd5b825167ffffffffffffffff81111561417f57600080fd5b8301601f8101851361419057600080fd5b805161419b816132c0565b6040516141a88282613293565b8281528760208486010111156141bd57600080fd5b6141ce83602083016020870161378e565b6020969096015195979596505050505050565b7f414133332072657665727465643a20000000000000000000000000000000000081526000825161414881600f85016020870161378e56fea2646970667358221220fc3661b20eded235f3aea419e47ec40e84cf8f64fa033e36719d68ede1a4a77964736f6c634300080c0033608060405234801561001057600080fd5b50610213806100206000396000f3fe608060405234801561001057600080fd5b506004361061002b5760003560e01c8063570e1a3614610030575b600080fd5b61004361003e3660046100f9565b61006c565b60405173ffffffffffffffffffffffffffffffffffffffff909116815260200160405180910390f35b60008061007c601482858761016b565b61008591610195565b60601c90506000610099846014818861016b565b8080601f016020809104026020016040519081016040528093929190818152602001838380828437600092018290525084519495509360209350849250905082850182875af190506000519350806100f057600093505b50505092915050565b6000806020838503121561010c57600080fd5b823567ffffffffffffffff8082111561012457600080fd5b818501915085601f83011261013857600080fd5b81358181111561014757600080fd5b86602082850101111561015957600080fd5b60209290920196919550909350505050565b6000808585111561017b57600080fd5b8386111561018857600080fd5b5050820193919092039150565b7fffffffffffffffffffffffffffffffffffffffff00000000000000000000000081358181169160148510156101d55780818660140360031b1b83161692505b50509291505056fea26469706673582212205cecb23ab2006c7d63bff0fa552069f4dd914f313604ca488d319a8342d89f0464736f6c634300080c0033",
  "devdoc": {
    "errors": {
      "FailedOp(uint256,string)": [
        {
          "params": {
            "opIndex": "- index into the array of ops to the failed one (in simulateValidation, this is always zero)",
            "reason": "- revert reason      The string starts with a unique code \"AAmn\", where \"m\" is \"1\" for factory, \"2\" for account and \"3\" for paymaster issues,      so a failure can be attributed to the correct entity.   Should be caught in off-chain handleOps simulation and not happen on-chain.   Useful for mitigating DoS attempts against batchers or for troubleshooting of factory/account/paymaster reverts."
          }
        }
      ],
      "ValidationResult((uint256,uint256,bool,uint48,uint48,bytes),(uint256,uint256),(uint256,uint256),(uint256,uint256))": [
        {
          "params": {
            "factoryInfo": "stake information about the factory (if any)",
            "paymasterInfo": "stake information about the paymaster (if any)",
            "returnInfo": "gas and time-range returned values",
            "senderInfo": "stake information about the sender"
          }
        }
      ],
      "ValidationResultWithAggregation((uint256,uint256,bool,uint48,uint48,bytes),(uint256,uint256),(uint256,uint256),(uint256,uint256),(address,(uint256,uint256)))": [
        {
          "params": {
            "aggregatorInfo": "signature aggregation info (if the account requires signature aggregator)      bundler MUST use it to verify the signature, or reject the UserOperation",
            "factoryInfo": "stake information about the factory (if any)",
            "paymasterInfo": "stake information about the paymaster (if any)",
            "returnInfo": "gas and time-range returned values",
            "senderInfo": "stake information about the sender"
          }
        }
      ]
    },
    "kind": "dev",
    "methods": {
      "addStake(uint32)": {
        "params": {
          "unstakeDelaySec": "the new lock duration before the deposit can be withdrawn."
        }
      },
      "getDepositInfo(address)": {
        "returns": {
          "info": "- full deposit information of given account"
        }
      },
      "getSenderAddress(bytes)": {
        "params": {
          "initCode": "the constructor code to be passed into the UserOperation."
        }
      },
      "handleAggregatedOps(((address,uint256,bytes,bytes,uint256,uint256,uint256,uint256,uint256,bytes,bytes)[],address,bytes)[],address)": {
        "params": {
          "beneficiary": "the address to receive the fees",
          "opsPerAggregator": "the operations to execute, grouped by aggregator (or address(0) for no-aggregator accounts)"
        }
      },
      "handleOps((address,uint256,bytes,bytes,uint256,uint256,uint256,uint256,uint256,bytes,bytes)[],address)": {
        "params": {
          "beneficiary": "the address to receive the fees",
          "ops": "the operations to execute"
        }
      },
      "simulateHandleOp((address,uint256,bytes,bytes,uint256,uint256,uint256,uint256,uint256,bytes,bytes),address,bytes)": {
        "params": {
          "op": "the UserOperation to simulate",
          "target": "if nonzero, a target address to call after userop simulation. If called, the targetSuccess and targetResult        are set to the return from that call.",
          "targetCallData": "callData to pass to target address"
        }
      },
      "simulateValidation((address,uint256,bytes,bytes,uint256,uint256,uint256,uint256,uint256,bytes,bytes))": {
        "details": "this method always revert. Successful result is ValidationResult error. other errors are failures.The node must also verify it doesn't use banned opcodes, and that it doesn't reference storage outside the account's data.",
        "params": {
          "userOp": "the user operation to validate."
        }
      },
      "withdrawStake(address)": {
        "params": {
          "withdrawAddress": "the address to send withdrawn value."
        }
      },
      "withdrawTo(address,uint256)": {
        "params": {
          "withdrawAddress": "the address to send withdrawn value.",
          "withdrawAmount": "the amount to withdraw."
        }
      }
    },
    "version": 1
  },
  "userdoc": {
    "errors": {
      "ExecutionResult(uint256,uint256,uint48,uint48,bool,bytes)": [
        {
          "notice": "return value of simulateHandleOp"
        }
      ],
      "FailedOp(uint256,string)": [
        {
          "notice": "a custom revert error of handleOps, to identify the offending op.  NOTE: if simulateValidation passes successfully, there should be no reason for handleOps to fail on it."
        }
      ],
      "SenderAddressResult(address)": [
        {
          "notice": "return value of getSenderAddress"
        }
      ],
      "SignatureValidationFailed(address)": [
        {
          "notice": "error case when a signature aggregator fails to verify the aggregated signature it had created."
        }
      ],
      "ValidationResult((uint256,uint256,bool,uint48,uint48,bytes),(uint256,uint256),(uint256,uint256),(uint256,uint256))": [
        {
          "notice": "Successful result from simulateValidation."
        }
      ],
      "ValidationResultWithAggregation((uint256,uint256,bool,uint48,uint48,bytes),(uint256,uint256),(uint256,uint256),(uint256,uint256),(address,(uint256,uint256)))": [
        {
          "notice": "Successful result from simulateValidation, if the account returns a signature aggregator"
        }
      ]
    },
    "events": {
      "AccountDeployed(bytes32,address,address,address)": {
        "notice": "account \"sender\" was deployed."
      },
      "SignatureAggregatorChanged(address)": {
        "notice": "signature aggregator used by the following UserOperationEvents within this bundle."
      },
      "StakeLocked(address,uint256,uint256)": {
        "notice": "Emitted when stake or unstake delay are modified"
      },
      "StakeUnlocked(address,uint256)": {
        "notice": "Emitted once a stake is scheduled for withdrawal"
      },
      "UserOperationRevertReason(bytes32,address,uint256,bytes)": {
        "notice": "An event emitted if the UserOperation \"callData\" reverted with non-zero length"
      }
    },
    "kind": "user",
    "methods": {
      "SIG_VALIDATION_FAILED()": {
        "notice": "for simulation purposes, validateUserOp (and validatePaymasterUserOp) must return this value in case of signature failure, instead of revert."
      },
      "_validateSenderAndPaymaster(bytes,address,bytes)": {
        "notice": "Called only during simulation. This function always reverts to prevent warm/cold storage differentiation in simulation vs execution."
      },
      "addStake(uint32)": {
        "notice": "add to the account's stake - amount and delay any pending unstake is first cancelled."
      },
      "balanceOf(address)": {
        "notice": "return the deposit (for gas payment) of the account"
      },
      "depositTo(address)": {
        "notice": "add to the deposit of the given account"
      },
      "deposits(address)": {
        "notice": "maps paymaster to their deposits and stakes"
      },
      "getSenderAddress(bytes)": {
        "notice": "Get counterfactual sender address.  Calculate the sender contract address that will be generated by the initCode and salt in the UserOperation. this method always revert, and returns the address in SenderAddressResult error"
      },
      "getUserOpHash((address,uint256,bytes,bytes,uint256,uint256,uint256,uint256,uint256,bytes,bytes))": {
        "notice": "generate a request Id - unique identifier for this request. the request ID is a hash over the content of the userOp (except the signature), the entrypoint and the chainid."
      },
      "handleAggregatedOps(((address,uint256,bytes,bytes,uint256,uint256,uint256,uint256,uint256,bytes,bytes)[],address,bytes)[],address)": {
        "notice": "Execute a batch of UserOperation with Aggregators"
      },
      "handleOps((address,uint256,bytes,bytes,uint256,uint256,uint256,uint256,uint256,bytes,bytes)[],address)": {
        "notice": "Execute a batch of UserOperations. no signature aggregator is used. if any account requires an aggregator (that is, it returned an aggregator when performing simulateValidation), then handleAggregatedOps() must be used instead."
      },
      "innerHandleOp(bytes,((address,uint256,uint256,uint256,uint256,address,uint256,uint256),bytes32,uint256,uint256,uint256),bytes)": {
        "notice": "inner function to handle a UserOperation. Must be declared \"external\" to open a call context, but it can only be called by handleOps."
      },
      "simulateHandleOp((address,uint256,bytes,bytes,uint256,uint256,uint256,uint256,uint256,bytes,bytes),address,bytes)": {
        "notice": "simulate full execution of a UserOperation (including both validation and target execution) this method will always revert with \"ExecutionResult\". it performs full validation of the UserOperation, but ignores signature error. an optional target address is called after the userop succeeds, and its value is returned (before the entire call is reverted) Note that in order to collect the the success/failure of the target call, it must be executed with trace enabled to track the emitted events."
      },
      "simulateValidation((address,uint256,bytes,bytes,uint256,uint256,uint256,uint256,uint256,bytes,bytes))": {
        "notice": "Simulate a call to account.validateUserOp and paymaster.validatePaymasterUserOp."
      },
      "unlockStake()": {
        "notice": "attempt to unlock the stake. the value can be withdrawn (using withdrawStake) after the unstake delay."
      },
      "withdrawStake(address)": {
        "notice": "withdraw from the (unlocked) stake. must first call unlockStake and wait for the unstakeDelay to pass"
      },
      "withdrawTo(address,uint256)": {
        "notice": "withdraw from the deposit."
      }
    },
    "version": 1
  },
  "storageLayout": {
    "storage": [
      {
        "astId": 2476,
        "contract": "contracts/core/EntryPoint.sol:EntryPoint",
        "label": "deposits",
        "offset": 0,
        "slot": "0",
        "type": "t_mapping(t_address,t_struct(DepositInfo)3225_storage)"
      }
    ],
    "types": {
      "t_address": {
        "encoding": "inplace",
        "label": "address",
        "numberOfBytes": "20"
      },
      "t_bool": {
        "encoding": "inplace",
        "label": "bool",
        "numberOfBytes": "1"
      },
      "t_mapping(t_address,t_struct(DepositInfo)3225_storage)": {
        "encoding": "mapping",
        "key": "t_address",
        "label": "mapping(address => struct IStakeManager.DepositInfo)",
        "numberOfBytes": "32",
        "value": "t_struct(DepositInfo)3225_storage"
      },
      "t_struct(DepositInfo)3225_storage": {
        "encoding": "inplace",
        "label": "struct IStakeManager.DepositInfo",
        "members": [
          {
            "astId": 3216,
            "contract": "contracts/core/EntryPoint.sol:EntryPoint",
            "label": "deposit",
            "offset": 0,
            "slot": "0",
            "type": "t_uint112"
          },
          {
            "astId": 3218,
            "contract": "contracts/core/EntryPoint.sol:EntryPoint",
            "label": "staked",
            "offset": 14,
            "slot": "0",
            "type": "t_bool"
          },
          {
            "astId": 3220,
            "contract": "contracts/core/EntryPoint.sol:EntryPoint",
            "label": "stake",
            "offset": 15,
            "slot": "0",
            "type": "t_uint112"
          },
          {
            "astId": 3222,
            "contract": "contracts/core/EntryPoint.sol:EntryPoint",
            "label": "unstakeDelaySec",
            "offset": 0,
            "slot": "1",
            "type": "t_uint32"
          },
          {
            "astId": 3224,
            "contract": "contracts/core/EntryPoint.sol:EntryPoint",
            "label": "withdrawTime",
            "offset": 4,
            "slot": "1",
            "type": "t_uint48"
          }
        ],
        "numberOfBytes": "64"
      },
      "t_uint112": {
        "encoding": "inplace",
        "label": "uint112",
        "numberOfBytes": "14"
      },
      "t_uint32": {
        "encoding": "inplace",
        "label": "uint32",
        "numberOfBytes": "4"
      },
      "t_uint48": {
        "encoding": "inplace",
        "label": "uint48",
        "numberOfBytes": "6"
      }
    }
  }
}